:100000000C9434000C943E000C943E000C943E0082
:100010000C943E000C943E000C943E000C943E0068
:100020000C943E000C943E000C943E000C943E0058
:100030000C943E000C943E000C943E000C943E0048
:100040000C943E000C943E000C943E000C943E0038
:100050000C943E000C943E000C943E000C943E0028
:100060000C943E000C943E0011241FBECFEFD8E04C
:10007000DEBFCDBF0E94D8000C94C0020C940000DB
:10008000CF93DF93CDB7DEB78BE290E0FC01208108
:100090008BE290E02061FC0120838BE290E0FC0188
:1000A00020818BE290E02F7EFC0120830000DF9115
:1000B000CF910895CF93DF93CDB7DEB78BE290E079
:1000C000FC0120818BE290E02064FC0120838BE224
:1000D00090E0FC0120818BE290E02F7BFC012083EB
:1000E0000000DF91CF910895CF93DF930F92CDB7AA
:1000F000DEB719828BE290E0FC0120818BE290E078
:100100002F7DFC01208389818930E8F70E9440001F
:100110000E945A0000000F90DF91CF910895CF9375
:10012000DF93CDB7DEB700000000DF91CF910895D7
:10013000CF93DF9300D0CDB7DEB78A8388E0898381
:100140002DC08A81882F90E02981222F30E0215014
:10015000310902C0959587952A95E2F78170992714
:10016000892B51F08BE290E0FC0120818BE290E042
:100170002062FC01208309C08BE290E0FC01208119
:100180008BE290E02F7DFC0120830E9440000E94C2
:100190008F000E945A008981815089838981882338
:1001A00081F6000000000F900F90DF91CF9108952D
:1001B000CF93DF93CDB7DEB7A4970FB6F894DEBF29
:1001C0000FBECDBF8AE290E0DC012C918AE290E084
:1001D0002067FC0120830E94740019821A828A81A0
:1001E000282F30E081E090E002C0880F991F2A9507
:1001F000E2F70E9498008981882319F48A818F5F31
:100200008A8380E090E0A8E4B2E48B839C83AD8392
:10021000BE8320E030E04AE755E46B817C818D812C
:100220009E810E942B026D8B7E8B8F8B988F8D8988
:100230009E89AF89B88D8F839887A987BA8720E078
:1002400030E040E85FE36F81788589859A850E9478
:10025000A50188232CF481E090E09C878B8754C013
:1002600020E03FEF4FE757E46F81788589859A85D5
:100270000E9426021816D4F520E030E040E251E456
:100280006B817C818D819E810E942B02698F7A8F88
:100290008B8F9C8F898D9A8DAB8DBC8D898B9A8B22
:1002A000AB8BBC8B69897A898B899C890E94AA0156
:1002B0006D8F7E8F8F8F98A3AD8DBE8DBC87AB87E2
:1002C00010C080E991E09E878D878D859E8501977E
:1002D000F1F79E878D8700008B859C8501979C8711
:1002E0008B878B859C85892B61F719C06F817885F9
:1002F00089859A850E94AA0169A37AA38BA39CA3EE
:10030000E9A1FAA1FC87EB878B859C85988B8F8769
:100310008F8598890197F1F7988B8F8700008A81E4
:10032000883021F4998181E0892789838A81882313
:1003300021F4998181E0892789838981882309F4BF
:100340004ECF8A8181508A834ACF0E94D90108F416
:1003500081E008950E94050288F09F5798F0B92F18
:100360009927B751B0F0E1F0660F771F881F991FEA
:100370001AF0BA95C9F714C0B13091F00E941F026B
:10038000B1E008950C941F02672F782F8827B85F7B
:1003900039F0B93FCCF3869577956795B395D9F742
:1003A0003EF490958095709561957F4F8F4F9F4F4C
:1003B0000895990F0008550FAA0BE0E8FEEF1616F6
:1003C0001706E807F907C0F012161306E407F50749
:1003D00098F0621B730B840B950B39F40A2661F0BD
:1003E000232B242B252B21F408950A2609F4A14060
:1003F000A6958FEF811D811D089557FD9058440FDC
:10040000551F59F05F3F71F04795880F97FB991F73
:1004100061F09F3F79F08795089512161306140630
:10042000551FF2CF4695F1DF08C0161617061806BD
:10043000991FF1CF86957105610508940895E89498
:10044000BB2766277727CB0197F908950E94D9012A
:1004500008F48FEF08950E943E020C94AF020E94B0
:10046000A10238F00E94A80220F0952311F00C940C
:1004700098020C949E0211240C9420020E94FD010B
:1004800070F3959FC1F3950F50E0551F629FF001E7
:10049000729FBB27F00DB11D639FAA27F00DB11D00
:1004A000AA1F649F6627B00DA11D661F829F222789
:1004B000B00DA11D621F739FB00DA11D621F839F10
:1004C000A00D611D221F749F3327A00D611D231FE6
:1004D000849F600D211D822F762F6A2F11249F5734
:1004E00050409AF0F1F088234AF0EE0FFF1FBB1F37
:1004F000661F771F881F91505040A9F79E3F5105F6
:1005000080F00C9498020C9420025F3FE4F3983E34
:10051000D4F3869577956795B795F795E7959F5F9F
:10052000C1F7FE2B880F911D9695879597F9089531
:1005300097F99F6780E870E060E008959FEF80EC96
:10054000089500240A941616170618060906089539
:1005500000240A9412161306140605060895092E9F
:100560000394000C11F4882352F0BB0F40F4BF2B0E
:1005700011F460FF04C06F5F7F4F8F4F9F4F08954E
:04058000F894FFCF1D
:00000001FF
